:100000000C9448000C9472000C9472000C947200D2
:100010000C9472000C9472000C9472000C94720098
:100020000C9472000C9400070C942D070C940E088D
:100030000C945A070C9487070C94E1070C94A606BD
:100040000C94D3060C9472000C9419020C946E025A
:100050000C9472000C9472000C9472000C94720058
:100060000C94B4070C94EF080C943B080C946808AB
:100070000C9495080C94C2080C94BD020C941203C5
:100080000C9472000C9472000C9472002005E30A28
:1000900011241FBECFEFD0E1DEBFCDBF11E0A0E045
:1000A000B1E0EAE7F6E100E00BBF02C007900D9275
:1000B000AA32B107D9F712E0AAE2B1E001C01D925D
:1000C000AB36B107E1F710E0C0E9D0E004C02297F9
:1000D000FE010E94370BCC38D107C9F70E941202EB
:1000E0000C943B0B0C9400000F931F9380E00E9434
:1000F0002101909333018093320181E00E9421011C
:10010000909335018093340183B390E09695879561
:100110008170907090932F0180932E0183E00E9454
:100120002101909331018093300163B370E06170DD
:10013000707070932B0160932A0183B390E09695C1
:1001400087958170907090932D0180932C010FE31F
:1001500011E0C8014AE050E00E945E06C8016BE36E
:100160000E94620560912C0170912D01C8014AE046
:1001700050E00E945E06C8016BE30E946205609138
:100180002E0170912F01C8014AE050E00E945E06E6
:10019000C8016BE30E9462056091300170913101EA
:1001A000C8014AE050E00E945E06C8016BE30E946D
:1001B00062056091320170913301C8014AE050E05C
:1001C0000E945E06C8016BE30E94620560913401E3
:1001D00070913501C8014AE050E00E945E06C801F6
:1001E0006BE30E94810564E670E080E090E00E948D
:1001F00074011F910F910895EF920F938091000168
:1002000061E00E949E018091000161E00E94D8019E
:1002100060ED77E080E090E00E9474018091000141
:1002200060E00E94D8018FE391E040E855E260E091
:1002300070E028E001E0EE240E94C1030F91EF90EE
:100240000895982F80910301813031F480E487B9BB
:1002500087E886B910920301977080910201829518
:10026000880F880F807C892B87B9369A3699FECF04
:1002700024B145B1942F80E030E0282B392BC901FF
:10028000089580913A0190913B01A0913C01B09179
:100290003D0130913E010196A11DB11D232F2D5F1F
:1002A0002D3720F02D570196A11DB11D20933E0141
:1002B00080933A0190933B01A0933C01B0933D01A0
:1002C0008091360190913701A0913801B0913901A8
:1002D0000196A11DB11D8093360190933701A09323
:1002E0003801B09339010895EF92FF920F931F9355
:1002F0007B018C018FB7F89440913A0150913B01FA
:1003000060913C0170913D018FBF2FB7F8948091AF
:100310003A0190913B01A0913C01B0913D012FBF6A
:10032000841B950BA60BB70B8E159F05A007B10775
:1003300060F31F910F91FF90EF900895282F8695FD
:100340008695869519F4E1E3F0E01DC0813019F43B
:10035000E4E3F0E018C0823019F4EAE3F0E013C0FF
:10036000833019F4E7E3F0E00EC0843019F4E2E2E0
:10037000F0E009C0853019F4E1E6F0E004C0863011
:10038000B1F4E4E6F0E0277081E090E0982F01C03E
:10039000990F2A95EAF72FB7F894662321F4808104
:1003A0009095892302C08081892B80832FBF089577
:1003B000282F86958695869519F4E2E3F0E01DC016
:1003C000813019F4E5E3F0E018C0823019F4EBE372
:1003D000F0E013C0833019F4E8E3F0E00EC084309D
:1003E00019F4E3E2F0E009C0853019F4E2E6F0E048
:1003F00004C08630B1F4E5E6F0E0277081E090E0DB
:10040000982F01C0990F2A95EAF72FB7F894662321
:1004100021F480819095892302C08081892B80837B
:100420002FBF08950E9471060E94FC000E94740074
:10043000FDCF1F920F920FB60F920BB60F921124A1
:100440001F932F933F934F935F936F937F938F935C
:100450009F93AF93BF93EF93FF93E0918F01F09140
:1004600090011081E0914101F09142010190F081F1
:10047000E02D81E491E009958097E0F480914501B9
:100480009091460101969093460180934501809199
:10049000470190914801FC01E15CFE4F14870196F1
:1004A0009093480180934701809724F0109248016F
:1004B00010924701FF91EF91BF91AF919F918F9162
:1004C0007F916F915F914F913F912F911F910F906D
:1004D0000BBE0F900FBE0F901F9018951F920F929A
:1004E0000FB60F920BB60F9211242F938F939F93F9
:1004F000AF93BF93EF93FF9380916F019091700141
:10050000892B09F1A0918F01B091900180916F0129
:100510009091700101979093700180936F01809189
:10052000730190917401FC01E15CFE4F26A90196D4
:100530009093740180937301409724F0109274019A
:10054000109273012C9380916F0190917001892B0F
:1005500031F4E0918B01F0918C0188E98083FF9167
:10056000EF91BF91AF919F918F912F910F900BBE03
:100570000F900FBE0F901F9018951F920F920FB6FD
:100580000F920BB60F9211241F932F933F934F930B
:100590005F936F937F938F939F93AF93BF93EF93EB
:1005A000FF93E091E101F091E2011081E09193016C
:1005B000F09194010190F081E02D83E991E009959B
:1005C0008097E0F480919701909198010196909323
:1005D0009801809397018091990190919A01FC0173
:1005E000EF56FE4F1487019690939A0180939901DC
:1005F000809724F010929A0110929901FF91EF9147
:10060000BF91AF919F918F917F916F915F914F912A
:100610003F912F911F910F900BBE0F900FBE0F9027
:100620001F9018951F920F920FB60F920BB60F9254
:1006300011242F938F939F93AF93BF93EF93FF93C7
:100640008091C1019091C201892B09F1A091E10132
:10065000B091E2018091C1019091C2010197909304
:10066000C2018093C1018091C5019091C601FC0136
:10067000EF56FE4F26A901969093C6018093C501BF
:10068000409724F01092C6011092C5012C938091DE
:10069000C1019091C201892B31F4E091DD01F0910B
:1006A000DE0188E98083FF91EF91BF91AF919F9127
:1006B0008F912F910F900BBE0F900FBE0F901F9038
:1006C0001895FC0188E091E0918380838AE191E0B4
:1006D0009383828380E290E09583848317821682DD
:1006E00086819781938782879187808784E291E0D2
:1006F00095A784A780E190E097A786A711AA10AAE2
:1007000080A991A995AB84AB93AB82AB662319F01A
:100710006130B1F51BC0EA5BFF4F80E990E0819347
:10072000919389E290E0819391938BE290E08193A1
:1007300091938AE290E08193919385E990E081938F
:1007400091938CE290E0918380830895EA5BFF4F60
:1007500088E990E08193919389E990E08193919366
:100760008BE990E0819391938AE990E08193919352
:100770008DE990E0819391938CE990E0918380835F
:1007800008955F926F927F928F929F92AF92BF92E5
:10079000CF92DF92EF92FF920F931F93CF93DF934D
:1007A000EC015A016B01922E502E8E2C60E072E10A
:1007B0008AE790E0A60195010E94F80A2C5F3F4F5E
:1007C0004F4F5F4F93E056954795379527959A95EC
:1007D000D1F7390160E074E284EF90E0A601950161
:1007E0000E94F80A2C5F3F4F4F4F5F4F83E05695B2
:1007F0004795379527958A95D1F7790140E050E0E4
:1008000060E874E88EE190E00E941A0B89010A19F1
:100810001B0917FF03C0109501951F4F930140E07E
:1008200050E060E472E48FE090E00E941A0B2A1915
:100830003B0937FF03C0309521953F4FFE01E65B32
:10084000FF4F021713073CF40190F081E02D82E086
:100850008083970105C00190F081E02D1082930103
:100860002150304086E0981669F0891520F095E017
:100870009916B9F409C087E0981641F099E09916E5
:1008800081F406C082E00EC080E00CC084E00AC0A3
:10089000C45BDF4FE881F981CC54D0408081846013
:1008A000808386E092E0591609F4886091E0891609
:1008B00021F092E0891621F402C0806301C08062B9
:1008C000C25BDF4FE881F98180832897E991F99134
:1008D0003083E881F98120832496E881F98188E9D1
:1008E0008083DF91CF911F910F91FF90EF90DF9068
:1008F000CF90BF90AF909F908F907F906F905F90C0
:100900000895FC0126813781C9010895DC01FC01AD
:1009100086819781892B19F42FEF3FEF17C03FB7DE
:10092000F894FD018681978101979783868382855C
:100930009385E80FF91F24850196FD01938782872F
:10094000809714F0138612863FBF30E0C9010895E6
:10095000CF93DF93DC01EC018E819F81892B19F409
:100960002FEF3FEF08C0ED01EA85FB85EA0FFB1F83
:100970008485282F30E0C901DF91CF910895FC01D3
:1009800017821682868197819387828791878087D5
:1009900008950F931F93CF93DF93EC01162F88A92F
:1009A00099A94097E0F70FB7F894ECA5FDA5019041
:1009B000F081E02DCE018C960995409790F488A99E
:1009C00099A9019699AB88AB8AA99BA9FE01E80F6A
:1009D000F91F16AB01969BAB8AAB409714F01BAA8C
:1009E0001AAAC45BDF4FE881F9818081806280832D
:1009F0000FBFDF91CF911F910F910895FC012481CA
:100A00003581C9010895FC0124813581C90108950A
:100A1000665F7F4F680F791FCB010895665F7F4F38
:100A2000680F791FCB010895665F7F4F680F791FAC
:100A3000CB010895665F7F4F680F791FCB01089542
:100A40008FE391E060E00E94610381E991E061E061
:100A50000E94610308950F931F93CF93DF938C013E
:100A6000EB0109C02196D801ED91FC910190F08134
:100A7000E02DC801099568816623A1F7DF91CF9128
:100A80001F910F910895EF92FF920F931F93CF93B1
:100A9000DF938C017B01EA010CC0D7016D917D01D0
:100AA000D801ED91FC910190F081E02DC8010995EC
:100AB0002197209791F7DF91CF911F910F91FF9090
:100AC000EF900895DC01ED91FC910190F081E02D13
:100AD000099508950F931F938C01DC01ED91FC9112
:100AE0000190F081E02D6DE00995D801ED91FC9128
:100AF0000190F081E02DC8016AE009951F910F91E6
:100B000008950F931F938C01DC01ED91FC910190EE
:100B1000F081E02D0995C8010E946A051F910F918F
:100B200008952F923F924F925F926F927F928F9291
:100B30009F92AF92BF92CF92DF92EF92FF920F936C
:100B40001F93DF93CF93CDB7DEB7A0970FB6F8947E
:100B5000DEBF0FBECDBF1C016A017B0141155105EF
:100B60006105710549F4DC01ED91FC910190F08182
:100B7000E02D60E3099554C0882499245401422E45
:100B800055246624772401E010E00C0F1D1F080D8A
:100B9000191DC701B601A30192010E94F80AF801CC
:100BA00060830894811C911CA11CB11CC701B60173
:100BB000A30192010E94F80AC901DA016C017D01CA
:100BC000C114D104E104F104F1F681E0E82EF12C26
:100BD000EC0EFD1EE80CF91C3E010894611C711C12
:100BE000D501C4010197A109B1096C01C818D90840
:100BF00014C0F601EE0DFF1D60816A3010F4605DD7
:100C000001C0695CD101ED91FC910190F081E02D72
:100C1000C10109950894E108F1086E147F0449F7B1
:100C2000A0960FB6F894DEBF0FBECDBFCF91DF9177
:100C30001F910F91FF90EF90DF90CF90BF90AF90FA
:100C40009F908F907F906F905F904F903F902F90EC
:100C50000895EF92FF920F931F93CF93DF93EC01D0
:100C60007A018B012115310541F4E881F981019068
:100C7000F081E02D642F09951AC02A303105A9F4BE
:100C800077FF0FC0E881F9810190F081E02D6DE2DE
:100C9000099510950095F094E094E11CF11C011D5C
:100CA000111DCE01B801A7012AE00E949105DF9134
:100CB000CF911F910F91FF90EF900895EF92FF92C7
:100CC0000F931F937B019A010027F7FC0095102FCB
:100CD000B801A7010E9429061F910F91FF90EF9084
:100CE00008950F931F9303EE11E0C80163E00E9483
:100CF000AA0AC80160E041E451E021E00E947F0AB5
:100D0000C80164E00E941C0905E012E0C80161E02E
:100D10000E94AA0AC80164E00E941C0907E212E0CE
:100D2000C80161E00E94AA0AC80164E00E941C098F
:100D300009E412E0C80161E00E94AA0AC80164E067
:100D40000E941C0978941F910F9108951F920F9291
:100D50000FB60F920BB60F9211242F933F934F9320
:100D60005F936F937F938F939F93AF93BF93EF9313
:100D7000FF93E091FD01F091FE01309709F0099594
:100D8000FF91EF91BF91AF919F918F917F916F9163
:100D90005F914F913F912F910F900BBE0F900FBE1F
:100DA0000F901F9018951F920F920FB60F920BB6CF
:100DB0000F9211242F933F934F935F936F937F93E1
:100DC0008F939F93AF93BF93EF93FF93E091FB01BA
:100DD000F091FC01309709F00995FF91EF91BF91D7
:100DE000AF919F918F917F916F915F914F913F91C3
:100DF0002F910F900BBE0F900FBE0F901F90189564
:100E00001F920F920FB60F920BB60F9211242F93D1
:100E10003F934F935F936F937F938F939F93AF9382
:100E2000BF93EF93FF93E0914102F091420230971C
:100E300009F00995FF91EF91BF91AF919F918F912B
:100E40007F916F915F914F913F912F910F900BBECA
:100E50000F900FBE0F901F9018951F920F920FB614
:100E60000F920BB60F9211242F933F934F935F93E2
:100E70006F937F938F939F93AF93BF93EF93FF9362
:100E8000E0913F02F0914002309709F00995FF91FF
:100E9000EF91BF91AF919F918F917F916F915F91F2
:100EA0004F913F912F910F900BBE0F900FBE0F905F
:100EB0001F9018951F920F920FB60F920BB60F92BC
:100EC00011242F933F934F935F936F937F938F934F
:100ED0009F93AF93BF93EF93FF93E0911F02F09125
:100EE0002002309709F00995FF91EF91BF91AF91E2
:100EF0009F918F917F916F915F914F913F912F9132
:100F00000F900BBE0F900FBE0F901F9018951F9261
:100F10000F920FB60F920BB60F9211242F933F939F
:100F20004F935F936F937F938F939F93AF93BF93F1
:100F3000EF93FF93E0912102F0912202309709F0A4
:100F40000995FF91EF91BF91AF919F918F917F9103
:100F50006F915F914F913F912F910F900BBE0F902A
:100F60000FBE0F901F9018951F920F920FB60F9201
:100F70000BB60F9211242F933F934F935F936F9370
:100F80007F938F939F93AF93BF93EF93FF93E091E2
:100F90002302F0912402309709F00995FF91EF9117
:100FA000BF91AF919F918F917F916F915F914F9181
:100FB0003F912F910F900BBE0F900FBE0F901F907F
:100FC00018951F920F920FB60F920BB60F92112425
:100FD0002F933F934F935F936F937F938F939F9341
:100FE000AF93BF93EF93FF93E0911D02F0911E0228
:100FF000309709F00995FF91EF91BF91AF919F91C3
:101000008F917F916F915F914F913F912F910F90B1
:101010000BBE0F900FBE0F901F9018951F920F924E
:101020000FB60F920BB60F9211242F933F934F934D
:101030005F936F937F938F939F93AF93BF93EF9340
:10104000FF93E0912502F0912602309709F009956F
:10105000FF91EF91BF91AF919F918F917F916F9190
:101060005F914F913F912F910F900BBE0F900FBE4C
:101070000F901F9018951F920F920FB60F920BB6FC
:101080000F9211242F933F934F935F936F937F930E
:101090008F939F93AF93BF93EF93FF93E09163027E
:1010A000F0916402309709F00995FF91EF91BF919B
:1010B000AF919F918F917F916F915F914F913F91F0
:1010C0002F910F900BBE0F900FBE0F901F90189591
:1010D0001F920F920FB60F920BB60F9211242F93FF
:1010E0003F934F935F936F937F938F939F93AF93B0
:1010F000BF93EF93FF93E0916502F0916602309702
:1011000009F00995FF91EF91BF91AF919F918F9158
:101110007F916F915F914F913F912F910F900BBEF7
:101120000F900FBE0F901F9018951F920F920FB641
:101130000F920BB60F9211242F933F934F935F930F
:101140006F937F938F939F93AF93BF93EF93FF938F
:10115000E0916702F0916802309709F00995FF91DC
:10116000EF91BF91AF919F918F917F916F915F911F
:101170004F913F912F910F900BBE0F900FBE0F908C
:101180001F9018951F920F920FB60F920BB60F92E9
:1011900011242F933F934F935F936F937F938F937C
:1011A0009F93AF93BF93EF93FF93E0916102F09110
:1011B0006202309709F00995FF91EF91BF91AF91CD
:1011C0009F918F917F916F915F914F913F912F915F
:1011D0000F900BBE0F900FBE0F901F9018951F928F
:1011E0000F920FB60F920BB60F9211242F933F93CD
:1011F0004F935F936F937F938F939F93AF93BF931F
:10120000EF93FF93E0916902F0916A02309709F041
:101210000995FF91EF91BF91AF919F918F917F9130
:101220006F915F914F913F912F910F900BBE0F9057
:101230000FBE0F901F901895FC018081882381F4C8
:10124000643031F1653028F46230E1F06330F0F45D
:101250000FC0663009F16630E8F0673009F51EC04E
:101260006630B1F0673038F4623061F0643071F0AC
:101270006130B1F409C0683079F0683058F06930F5
:1012800079F40CC092E00DC091E00BC093E009C06E
:1012900094E007C095E005C096E003C097E001C068
:1012A00090E00284F385E02D8081887F982B9083E5
:1012B0000895CF93DF93EC0168836130F1F06130E2
:1012C00038F0623009F448C0633009F092C064C05D
:1012D0001B821A8282E590E09D838C8387E590E0F3
:1012E0009F838E8383E590E0998788879B878A8791
:1012F0001D861C8681E590E043C087E590E09F83D2
:101300008E838DE490E09B838A838CE490E09D83C0
:101310008C838FE490E0998788878EE490E09B87A8
:101320008A878BE490E09D878C878AE490E09F8792
:101330008E8789E490E0998B888B88E490E09B8B82
:101340008A8B89E790E09D8B8C8B88E790E09F8B60
:101350008E8B83E089834DC01B821A8284E490E0E7
:101360009D838C8387E590E09F838E8385E490E066
:10137000998788879B878A871D861C8683E490E0EF
:101380009F878E87198A188A1B8A1A8A1D8A1C8A47
:101390001F8A1E8A81E0DECF8DE790E09F838E83D7
:1013A00089E890E09B838A8388E890E09D838C8322
:1013B0008BE890E0998788878AE890E09B878A8706
:1013C00087E890E09D878C8786E890E09F878E87EE
:1013D00085E890E0998B888B84E890E09B8B8A8BE2
:1013E00083E890E09D8B8C8B82E890E09F8B8E8BC6
:1013F0006983CE0160E00E941C09EA81FB8130977D
:1014000009F01082EC81FD811082198E188E1B8EDE
:101410001A8E1D8E1C8E1F8E1E8E19A218A2DF9191
:10142000CF910895FC01623079F1633030F4662386
:1014300051F0613009F062C016C0633079F1643058
:1014400009F05CC033C08081882311F1813011F430
:1014500082E01EC0823011F486E01AC0833009F0A9
:101460004DC082E02DC08081882311F481E010C03E
:10147000813011F484E00CC0823011F487E008C0A0
:101480008330E1F584E01CC08081813021F483E069
:10149000E7E5F0E017C0833089F512C08081813024
:1014A00011F480E00DC0833049F509C0808181309E
:1014B00011F485E0EDCF833009F585E001C081E0CE
:1014C000EDE7F0E02081682F772767FD709581E0D8
:1014D00090E0062E02C0880F991F0A94E2F78095CB
:1014E000822320E030E0442311F021E030E002C00C
:1014F000220F331F6A95E2F7822B80830895FC0147
:10150000623091F0633028F4662341F06130A1F439
:1015100008C0633061F0643079F40CC0518F408FA3
:101520000BC0538F428F08C0558F448F05C0578F13
:10153000468F02C051A340A3452B29F4CF0140E0C0
:101540000E94120A0895222321F0CF0141E00E9457
:10155000120A0895CF93DF93DC018C91882311F058
:101560008230C9F4ED01E885F9854081262F30E00D
:10157000C9018170907066E0880F991F6A95E1F744
:1015800022703070220F331F220F331F822B477BB4
:10159000842B808315C0ED01E885F9858081962F25
:1015A00093708C7F982B9083EA85FB852081862F12
:1015B00090E08C709070880F991F277E282B2083D5
:1015C000DF91CF91089583EE91E060E00E94590988
:1015D00085E092E061E00E94590987E292E062E0D2
:1015E0000E94590989E492E063E00E945909089534
:1015F000A1E21A2EAA1BBB1BFD010DC0AA1FBB1F17
:10160000EE1FFF1FA217B307E407F50720F0A21B88
:10161000B30BE40BF50B661F771F881F991F1A94F5
:1016200069F760957095809590959B01AC01BD011F
:10163000CF01089597FB092E05260ED057FD04D043
:10164000D7DF0AD0001C38F450954095309521958D
:101650003F4F4F4F5F4F0895F6F7909580957095E7
:1016600061957F4F8F4F9F4F0895EE0FFF1F05909D
:0A167000F491E02D0994F894FFCFE7
:10167A003000010100000000C9042B054305810464
:10168A00A8048604BF0400000000030514051A0517
:0A169A0000000000FE0408050E0524
:00000001FF
